:020000040800F2
:10000000F007002045010008A15A000835530008F8
:100010009D5A0008350C000811740008000000000B
:10002000000000000000000000000000A5690008BA
:100030002514000800000000155B0008B96A0008DC
:100040005F0100085F0100085F0100080166000809
:100050005F0100085F0100085F0100085F01000800
:100060005F0100085F0100085F0100085F010008F0
:100070005F0100085F0100085F0100085F010008E0
:100080005F0100085F0100085F0100085F010008D0
:100090005F0100085F0100085F0100085F010008C0
:1000A0005F0100085F0100085F0100085F010008B0
:1000B0005F0100085F0100085F0100085F010008A0
:1000C0005F0100085F0100085F0100085F01000890
:1000D0005F010008657000085F0100088971000871
:1000E0005F0100085F0100085F0100085F01000870
:1000F0005F0100085F0100085F0100085F01000860
:100100005F0100085F0100085F0100085F0100084F
:100110005F0100085F0100085F0100085F0100083F
:100120005F0100085F0100085F0100085F0100082F
:10013000DFF80CD000F02EFB00480047F97D0008E6
:10014000F00700200648804706480047FEE7FEE724
:10015000FEE7FEE7FEE7FEE7FEE7FEE7FEE7FEE777
:10016000056B00083101000840EA01039B0703D03A
:1001700009E008C9121F08C0042AFAD203E011F8E6
:10018000013B00F8013B521EF9D27047D2B201E0A8
:1001900000F8012B491EFBD270470022F6E710B58C
:1001A00013460A4604461946FFF7F0FF204610BDE5
:1001B000421E12F8013F002BFBD111F8013B02F85F
:1001C000013B002BF9D1704730B505462A460B4656
:1001D00012F8010B13F8014B08B1A042F8D01CB182
:1001E000002802D06D1CF1E7284630BD421C10F8F3
:1001F000011B0029FBD1801A7047034611F8012B1F
:1002000000F8012B002AF9D11846704770B5064650
:1002100007F036F9046805460A220021304600F04E
:10022000DEF82C6070BD2DE9FE4F81EA030404F076
:10023000004421F0004100944FF0000B23F00043F4
:1002400050EA01045ED052EA03045BD0C3F30A54BF
:10025000C1F30A552C44A4F2F3340194A0FB0254D8
:10026000C1F3130141F48011C3F3130343F480136A
:1002700001FB024400FB034E840A970A44EA8154BE
:1002800047EA8357A4FB076802958D0A05FB07859B
:100290004FEA932C04FB0C542705029D4FEA0658A5
:1002A00047EA1637B5EB08056EEB070C870E920E82
:1002B00047EA811742EA8312A7FB0201B6EB0B0162
:1002C00064EB00042B0D43EA0C335E1844EB1C5026
:1002D000DA465146E7FB0201C5F313044FEA0B333C
:1002E00043EA14534FEA0432019C43EA0603A4F1A3
:1002F0000C040294009CCDE900B400F0B7F803B000
:10030000BDE8F08F00200146F9E700F0004230F030
:1003100000400AD0C10D01F56071C0F3160042EA39
:100320000151C20840071143704700200146704741
:1003300030B50B46014600202022012409E021FAB5
:1003400002F59D4205D303FA02F5491B04FA02F5B2
:100350002844151EA2F10102F1DC30BD2DE9F05F49
:100360000546002092469B46884606468146402424
:100370001BE0284641464746224600F020F85346F7
:100380005A46C01A914110D311461846224600F031
:1003900013FA2D1A67EB01084F462246012000216F
:1003A00000F00AFA17EB00094E41201EA4F10104E7
:1003B000DFDC484631462A464346BDE8F09F202A06
:1003C00004DB203A21FA02F00021704721FA02F3FF
:1003D000D040C2F1200291400843194670472DE9F0
:1003E000F04791460F4680460446002614F8015B0C
:1003F0002DB100F003FA0068405DC007F6D12B2D47
:1004000002D02D2D18D0641E4A463946204600F0F1
:10041000F9F927B13968A14201D1C7F80080710507
:100420004FF002040BD54042002803DD07F028F806
:100430000460A007BDE8F08746F48066E4E7002882
:10044000F8DA07F01DF804606FF00040F2E710B52D
:10045000141E73F1000408DA401C41F100019218E7
:100460005B411A4301D120F0010010BD2DE9F04D90
:1004700092469B4611B1B1FA81F202E0B0FA80F2E5
:100480002032904600F098F904460F4640EA0A00F0
:1004900041EA0B0153465A46084313D0114653EA2A
:1004A000010019D0C8F140025046FFF788FF054609
:1004B0000E4650465946424600F07EF9084305D0A4
:1004C000012004E020463946BDE8F08D00200543B8
:1004D00046EAE0762C4337430A986305E40AA0EB2A
:1004E00008000022FD0A44EA47540A3002D50020E1
:1004F0000146E9E7010510196941DDE908450019E0
:100500006941BDE8F04DA2E72DE9FE4F804681EA42
:100510000300C00F0C46009021F0004123F000457D
:10052000B8EB0200A94105D24046214690461C4640
:100530000B46024623F00040104347D0270DC7F377
:100540000A00C3F30A510290401A019040286BDA66
:10055000C3F3130040F4801B0098924620B100239F
:10056000D2EB030A63EB0B0B01985946C0F1400232
:10057000504600F021F906460D4650465946019A6C
:1005800000F029F910EB08006141002487EA1152BC
:1005900084EAE7731A4340D0009A62B3019A012AB1
:1005A0004FEA075215DC001B61EB02014FF00042DD
:1005B00002EA0752CDE90042001C41F580113246A3
:1005C0002B46FFF753FF03B0BDE8F08F40462146AE
:1005D000F9E7001B61EB0201001C41F580130018D4
:1005E0005B412018A2F5001747EB030140EAD570E4
:1005F000B6196D4111E06D084FEA360645EAC0753F
:100600004FEA0752001B61EB0201001C41F580110B
:1006100049084FEA30000019514132462B4603B0D9
:10062000BDE8F04FFFF713BF009801224000002300
:10063000D0EB020263EBE073009821464FEAE074CE
:10064000B8EB000061EB0401E9E783F000435BE7EE
:1006500081F0004158E72DE9F04D81EA030404F0F0
:10066000004B21F0004514464FF0000A23F00041F2
:1006700050EA050220D054EA01021DD0C5F30A5702
:100680000246C5F31303C1F31300C1F30A5640F445
:10069000801543F48013A7EB0608101BD64608F21A
:1006A000FD3873EB050002D308F1010801E0921850
:1006B0005B41B8F1000F03DA00200146BDE8F08D80
:1006C00000204FF48011064684460EE0171B73EBA2
:1006D000050705D3121B63EB050306434CEA010C27
:1006E00049084FEA300092185B4150EA0107EDD10A
:1006F00052EA030012D082EA040083EA05010843AB
:1007000005D0101BAB4106D20122002306E00022D7
:100710004FF0004302E06FF0010253101AEB0600A5
:100720004CEB085110EB0A0041EB0B01BDE8F04D1A
:10073000FFF78DBEC1F30A52C1F3130140F2FF333C
:1007400041F480119A4202DA00200146704740F2DB
:1007500033439A42A2F2334202DC5242FFF72FBEE9
:1007600000F02AB830B5041E71F1000404DB4FF02C
:100770000044404264EB0101141E73F1000405DBE8
:100780001C464FF00043524263EB0403994208BFFA
:10079000904230BD064C074D06E0E06840F0010392
:1007A00094E8070098471034AC42F6D3FFF7C4FC36
:1007B000A8D10008C8D10008202A04DB203A00FA9A
:1007C00002F1002070479140C2F1200320FA03F3A8
:1007D000194390407047202A06DBCB17203A41FA94
:1007E00002F043EAE07306E041FA02F3D040C2F1BE
:1007F00020029140084319467047000000487047A6
:10080000B8CF00082DE9F05F824600780027154632
:100810008B460AF10104B946302801D09DB113E09E
:1008200014F8010B0127782803D0582801D045B1CE
:100830000AE00DB1102D07D10027102514F8010B87
:1008400002E0082500E00A250026B0460EE005FB80
:10085000080005FB06F1012701EB10461FFA80F89E
:10086000B6F5803F00D3B94614F8010B294600F0D5
:1008700018F80028EBDABBF1000F05D00FB1641EA9
:1008800000E05446CBF80040B9F1000F06D006F066
:10089000F7FD02210160C81EBDE8F09F48EA06404E
:1008A000FAE73A2800D2303820F02002412A01D35A
:1008B000A2F13700884201D34FF0FF30704721B1D9
:1008C000826842F00102826003E0826822F0010245
:1008D0008260704710B504461248844208D1012155
:1008E000401505F09DF90021601505F099F917E014
:1008F0000D48844208D10121001505F091F900212D
:10090000201505F08DF90BE00848844208D101213B
:10091000C80305F085F900214FF4004005F080F987
:1009200010BD00000024014000280140003C0140AF
:10093000014600208A6802F004020AB1012000E0AA
:10094000002070470146C86C80B270470246002004
:1009500013680B400BB1012000E0002070470146F6
:1009600000208A6802F008020AB1012000E000209D
:100970007047000030B502460020002350680F4C3D
:1009800020400D790C6844EA0524204350609068AB
:100990000B4C2040D1E902542C434D7944EA4504E4
:1009A00020439060D06A20F470000C7C641EE4B296
:1009B000234340EA0350D06230BD0000FFFEF0FF49
:1009C000FDF7F1FFF0B504460D4600200021092D8A
:1009D00011DDE068A5F10A0606EB4607072606FAD0
:1009E00007F18843A5F10A0606EB460603FA06F16D
:1009F0000843E0600CE0206905EB4507072606FA8E
:100A000007F1884305EB450603FA06F10843206128
:100A1000072A0FDA606B561E06EB86071F2606FABA
:100A200007F18843561E06EB860605FA06F10843D1
:100A3000606322E00D2A0FDA206BD61F06EB8607D3
:100A40001F2606FA07F18843D61F06EB860605FA2D
:100A500006F10843206310E0E06AA2F10D0606EB00
:100A600086071F2606FA07F18843A2F10D0606EB5A
:100A7000860605FA06F10843E062F0BD816841F0A0
:100A800008018160704721B1826842F4A00282604F
:100A900003E0826822F4A00282607047816841F01E
:100AA000040181607047000008B50121082005F0AD
:100AB000A7F84FF48070ADF8000010208DF8030007
:100AC00003208DF802006946034801F071FB002005
:100AD0000249086008BD0000000C0140A0812142CD
:100AE0000349087018B103490968034A1160704747
:100AF00020000020000000202400002010B501206C
:100B000004490860642007F01DF900200249C1F87B
:100B1000A00110BDA08121420080214241490978F5
:100B200019B90021404A1160704740490968404A9C
:100B30001268881A3B49097807296BD2DFE801F06F
:100B40006A042536475666004FF4C871B0FBF1F2CF
:100B500001FB1201642910D34FF4C871B0FBF1F20C
:100B600001FB1201C8290CD94FF4C871B0FBF1F296
:100B700001FB1201B1F5967F03D201212A4A1160CF
:100B800002E00021284A116048E04FF47A71B0FB7E
:100B9000F1F201FB1201B1F5FA7F03D20121224AE1
:100BA000116002E00021204A116037E040F2DC5180
:100BB000B0FBF1F201FB1201B1F52F7F03D201214D
:100BC000194A116002E00021174A116026E0C8218D
:100BD000B0FBF1F201FB1201642903D20121124A98
:100BE000116002E00021104A116017E04FF44871D3
:100BF000B0FBF1F201FB1201C82903D201210A4A1C
:100C0000116002E00021084A116007E00121064A54
:100C1000116003E00021044A116000BF00BF00BF63
:100C200082E7000020000020A08121420000002077
:100C30002400002000BFFEE701460A2924D2DFE895
:100C400001F005080B0E1114171A1D200F484079EA
:100C500070470E488079FBE70C48C079F8E70B48ED
:100C6000407AF5E70948807AF2E70848C07AEFE76A
:100C70000648407BECE70548807BE9E70348007CB9
:100C8000E6E70248407CE3E70020E1E75C00002063
:100C900010B511A006F0BEFB1BA006F0BBFB23485D
:100CA000C3798279417922A006F0B4FB1F48C37A48
:100CB000827A417A2CA006F0ADFB1C48827B417BF6
:100CC00036A006F0A7FB1948427C017C3EA006F046
:100CD000A1FB002010BD0000436F6E6669673A20DB
:100CE000496E697469616C697A696E6720636F6EB9
:100CF00066696775726174696F6E20737973746564
:100D00006D2E2E2E0D0A0000436F6E6669673A2025
:100D100044656661756C742073657474696E67737D
:100D2000206C6F616465640D0A0000005C000020A7
:100D3000202054656D70657261747572653A204645
:100D4000616E204F4E206174202564C2B0432C2078
:100D5000416C61726D73206174202564C2B0432FB1
:100D60002564C2B0430D0A00202048756D6964698E
:100D700074793A2050756D70204F4E206174202593
:100D80006425252C20416C61726D732061742025CF
:100D90006425252F256425250D0A000020204C6997
:100DA0006768743A204175746F204F4E206174203B
:100DB000256425252C20416C61726D2061742025ED
:100DC0006425250D0A0000002020496E74657276A6
:100DD000616C733A2053656E736F72202564732CB7
:100DE000204C6F67202564730D0A000010B50024A5
:100DF00000F024F804E0601CC4B2012006F0C8FF33
:100E00000D48006808B1642CF5DB642C01DB01207F
:100E100010BD002404E0601CC4B2012006F0B8FF3D
:100E20000548006808B9642CF5DB642C01DB01205F
:100E3000EEE70020ECE700002C01244208B5012178
:100E4000080204F0DDFE4FF40060ADF80000482019
:100E50008DF803006946024801F0AAF908BD0000B8
:100E60000020014008B50121080204F0C9FE4FF43A
:100E70000060ADF8000010208DF8030003208DF80D
:100E800002006946014801F093F908BD00200140C5
:100E900010B5FFF7E7FF01200A490860642006F05B
:100EA00051FF00F09BF8FFF7A1FF044624B906A00C
:100EB00006F0B0FA002010BD0CA006F0ABFA01203D
:100EC000F9E70000AC01244244485431313A205340
:100ED000656E736F7220496E697420537563636524
:100EE0007373202850473131290D0A00444854318A
:100EF000313A2053656E736F7220436F6E6E656377
:100F000074696F6E204661696C65642028504731B2
:100F100031290D0A0000000010B5002404E0601C17
:100F2000C4B2012006F034FF0D48006808B1642CFB
:100F3000F5DB002404E0601CC4B2012006F028FFA9
:100F40000748006808B9642CF5DB282006F020FF6C
:100F50000348006808B1012010BD0020FCE7000034
:100F60002C01244270B50024002506E06006040E22
:100F7000FFF7D2FF0443681CC5B2082DF6DB2046FC
:100F800070BD7CB505460E4600F028F8FFF72EFF31
:100F9000F8B9002405E0FFF7E5FF0DF80400601C38
:100FA000C4B2052CF7DB9DF800009DF80110084441
:100FB0009DF8021008449DF8031008449DF80410A1
:100FC000884208D19DF8000030709DF8020028701A
:100FD00001E001207CBD0020FCE7000010B5FFF718
:100FE00041FF002006490860142006F0ABFE0120F6
:100FF0000449C1F8AC011E2006F0CAFE10BD000075
:10100000AC012442000024422DE9FC4781460C46F5
:101010000C48C0F80490846001200A4908732046F7
:10102000FFF773F905460E464846FFF76EF9074687
:101030003A460B460448CDE9005606F0EBF9BDE808
:10104000FC870000B0000020BCCF000870B504464B
:10105000094800EBC42500F0D5FE284600F052FEFA
:10106000064600F08FFE042E04D004A006F0D2F94C
:10107000012070BD0020FCE7000007085061676593
:10108000206572617365206661696C6564210D0A73
:101090000000000010B505F07FFA10BD2DE9FF41FA
:1010A0003AA006F0B7F91C214048FFF776F8002473
:1010B00054E0002700254DE03D4800EBC42000EB44
:1010C00005166946304600F089F8002840D19DF8A1
:1010D0000000FF283BD0781C87B234480068401CD1
:1010E000324908609DF80400012804D0022808D085
:1010F000032812D10BE02D484068401C2B49486062
:101100000BE02A488068401C2849886005E0274891
:10111000C068401C2549C86000BF00BF2348006963
:1011200020B1224900980969884202D21F490098DB
:1011300008611E4900984969884202D91B490098F4
:1011400048611A480483681C1849488300E008E095
:10115000681C85B2802DAFDB601C84B2202CA8DB1C
:1011600000BF1248408B802806DB1048008B401CD3
:101170000E490883002048830C4801680DA006F042
:1011800049F9002004B0BDE8F0810000496E69749F
:1011900069616C697A696E672064617461206C6F43
:1011A000676765722E2E2E0D0A000000F8010020E0
:1011B0000000070844617461206C6F6767657220E6
:1011C000696E697469616C697A65642E2052656321
:1011D0006F7264733A20256C750D0A0030B50246B3
:1011E0000B461D4614460A48824202D309488242F1
:1011F00001D9012030BD002105E054F8210045F857
:101200002100481CC1B20429F7DB0020F2E70000EE
:1012100000000708EFFF07082DE9FF4104460D46CF
:1012200016461F4600200090019002900390FFF7A1
:1012300031FF009003208DF804008DF805408DF8F3
:1012400006508DF807608DF80870684600F03CF88D
:1012500050B90648C068401C0449C86000984861FD
:10126000002004B0BDE8F0810120FAE7F801002079
:101270002DE9FF4104460D4616461F46002000900A
:10128000019002900390FFF705FF009002208DF877
:1012900004008DF805408DF806508DF807608DF834
:1012A0000870684600F010F850B906488068401C85
:1012B0000449886000984861002004B0BDE8F081CE
:1012C0000120FAE7F80100202DE9F0410746B84671
:1012D0002848408B802806DB2648008B401C254987
:1012E0000883002048832348008B202809DB22A0A4
:1012F00006F090F80020FFF7A9FE00201D490883A2
:1013000048831C48008B244901EBC0211948408BBD
:1013100001EB00151748408B30B92868401C18B104
:101320001449088BFFF792FE00F06CFD002412E0D8
:1013300058F8241005EB840000F02EFD0646042E1C
:1013400007D016A006F066F800F01CFD0120BDE8ED
:10135000F081601CC4B2042CEADB00F013FD0548E8
:10136000408B401C0349488308460068401C0860C5
:101370000020ECE7F8010020466C61736820667578
:101380006C6C2C2065726173696E67207061676593
:1013900020302E0D0A00000000000708466C617323
:1013A00068207772697465206661696C6564210DD7
:1013B0000A0000002DE9FF5F04460D4616461F4651
:1013C000DDE910ABDDE90E8900200090019002906C
:1013D0000390FFF75FFE009001208DF804008DF868
:1013E00005408DF806508DF807608DF808708DF86F
:1013F00009808DF80A908DF80BA08DF80CB0684626
:10140000FFF762FF50B906484068401C0449486035
:1014100000984861002004B0BDE8F09F0120FAE781
:10142000F8010020704710B505F02CFC4FF6FF7056
:1014300003F0F0FF10BD00002DE9FC4106460F4609
:1014400014461D46084805804FF6FF70074908807E
:1014500010200346C8223946CDE90004304604F086
:101460001DF9BDE8FC81000042000020440000207E
:1014700030B59DB004464FF6FF70F8490880F84833
:10148000007838B1E0780090A37862782178F5A0F0
:1014900005F0C0FF4FF6FF7042234FF48C723221EB
:1014A0000090A02004F00CF80020FD49088010A94D
:1014B000FC4805F05BF810A810210B467822CDE916
:1014C00000103221A02004F0E9F84FF6FF702E231F
:1014D000C8221E2100900A2003F0F2FF10A9F14853
:1014E00005F02EF810A810210B46C822CDE90010F7
:1014F0001E210A2004F0D2F8E078EB4909788842EE
:1015000003D1D7480078002830D00020E449088073
:10151000E6A010210B466422CDE9001046210A20E6
:1015200004F0BCF84FF6FF705623B4224621009019
:10153000502003F0C5FF4FF4F040D9490880E0780F
:1015400008B9DCA000E0DDA00246DEA110A805F08D
:1015500071FF10A810210B466422CDE9001046212E
:10156000502004F09BF8E078CF4908702078D649E5
:101570000978884203D1BA48007800282FD000208B
:10158000C7490880D1A010210B466422CDE9001084
:1015900011460A2004F082F84FF6FF707423B4223B
:1015A00064210090502003F08BFF4FF4F040BC49C1
:1015B00008802278C7A110A805F03CFF10A81021D0
:1015C0000B466422CDE900101146502004F066F865
:1015D0002078BD4908702178C0A005F01BFF607815
:1015E000C7490978884202D19D48007858B3002045
:1015F000AB490880C3A010210B466422CDE900103E
:1016000082210A2004F04AF84FF6FF709223B42298
:1016100082210090502003F053FF4FF4F040A04986
:1016200008806278B9A110A805F004FF10A8102165
:101630000B466422CDE900108221502004F02EF8E0
:101640006078AF490870A078B2490978884202D121
:101650008348007858B3002091490880AEA010213B
:101660000B466422CDE90010A0210A2004F016F8F0
:101670004FF6FF70B023B422A0210090502003F059
:101680001FFF4FF4F04086490880A2789FA110A860
:1016900005F0D0FE10A810210B466422CDE9001001
:1016A000A021502003F0FAFFA0789A49087000F0BA
:1016B0005DFC054620799A490978884205D022794F
:1016C0009748017897A005F0A5FE9E480078A842AB
:1016D00005D02A469B4801789BA005F09BFEA348B5
:1016E0000078401CA149087020798D49097888420A
:1016F0000AD194480078A84206D15948007818B910
:101700009A480078052846DB98480078052805DBCC
:1017100000209649087096A005F07CFE00206049E4
:1017200008809EA010210B466422CDE90010BE2146
:101730000A2003F0B3FF4FF6FF70CE23B422BE2180
:101740000090502003F0BCFE207938B900205449A5
:10175000088094A110A805F06DFE08E04FF4FC602D
:101760004F4908802A4690A110A805F063FE10A8F2
:1017700010210B466422CDE90010BE21502003F059
:101780008DFF2A4610A98BA005F044FE20796449FC
:1017900008706C480570607990490978884202D1D8
:1017A0002F480078A0B300203D4908808CA010216C
:1017B0000B466422CDE90010DC210A2003F06EFF05
:1017C0004FF6FF70EC23B422DC210090502003F090
:1017D00077FE607910B14FF4FC6000E000203049E2
:1017E0000880607908B180A000E06EA0024635A1B3
:1017F00010A805F01FFE10A810210B466422CDE9A9
:101800000010DC21502003F049FF60797349087013
:10181000A07976490978884202D111480078D8B178
:1018200000201F4908803CA010210B466422CDE90E
:101830000010FA210A2003F031FF4FF6FF704FF439
:101840008573B422FA210090502003F039FEA0796C
:1018500018B14FF4FC60CCE0E7E0C9E044000020A0
:1018600040000020446973706C61793A20466972C7
:10187000737420646973706C61792073746174751A
:1018800073202D20543A25642C20483A25642C20BE
:101890004C3A25642C204D6F64653A25640D0A008E
:1018A00042000020500000203A0000204D6F646587
:1018B0003A0000004155544F000000004D414E5584
:1018C000414C0000257300003400002054656D7009
:1018D0003A000000253364204300000054656D7019
:1018E0006572617475726520646973706C617920CA
:1018F000757064617465643A20256420430D0A00A4
:101900003500002048756D693A00000025336425D4
:1019100025000000360000204C696768743A00001A
:101920003700002046616E20737461747573206304
:1019300068616E6765643A202564202D3E20256429
:101940000D0A00003B00002046616E207370656543
:1019500064206368616E6765643A202564252520EC
:101960002D3E20256425250D0A00000041000020A1
:1019700046616E20646973706C61793A20466F72BB
:101980006365207570646174652028636F756E747B
:101990006572207265736574290D0A0046616E3A9E
:1019A000000000004F4646004F4E20253364252599
:1019B0000000000046616E20646973706C617920DC
:1019C000757064617465643A2025732028537065CE
:1019D00065643A2025642525290D0A003800002079
:1019E00050756D703A0000004F4E00003900002025
:1019F000002041490880A07910B1AFF2140001E045
:101A0000AFF260000246AFF2441110A805F012FDDB
:101A100010A810210B466422CDE90010FA215020B5
:101A200003F03CFEA07935490870E0793449096833
:101A3000884258D0E079002847D04FF478404FF4DE
:101A4000A073F0224FF48C710090002003F038FD59
:101A50002CA103A8FEF7D1FBE07900F0010018B13A
:101A60002AA103A8FEF7A4FBE07900F0020018B158
:101A700029A103A8FEF79CFBE07900F0040018B14F
:101A800028A103A8FEF794FBE07900F0080018B144
:101A900027A103A8FEF78CFBE07900F0100018B135
:101AA00026A103A8FEF784FBE07900F0200018B11E
:101AB00025A103A8FEF77CFB4FF6FF7303AA40F2B3
:101AC00027110A20FFF7B8FC0AE04FF6FF704FF429
:101AD000A073F0224FF48C710090002003F0F0FC12
:101AE000E079074908601B48007810B100201949C7
:101AF00008701DB030BD00004200002039000020F9
:101B00003C000020414C41524D3A20004869676832
:101B100054656D70200000004C6F7754656D702027
:101B2000000000004869676848756D692000000082
:101B30004C6F7748756D6920000000004C6F774C42
:101B4000696768742000000053656E736F72457298
:101B500072200000400000201CB51F205149088061
:101B60004FF6FF705049088050A018210B46C8223C
:101B7000CDE900100A213C2003F090FD00204949E6
:101B800008804FA010210B466422CDE900104621A9
:101B90000A2003F083FD4CA010210B466422CDE9FE
:101BA000001011460A2003F079FD49A010210B46D0
:101BB0006422CDE9001082210A2003F06FFD46A0C7
:101BC00010210B466422CDE90010A0210A2003F069
:101BD00065FD43A010210B466422CDE90010BE2113
:101BE0000A2003F05BFD40A010210B466422CDE9E2
:101BF0000010DC210A2003F051FD37A010210B4614
:101C00006422CDE90010FA210A2003F047FD4FF4C9
:101C1000F0402449088036A010210B466422CDE90B
:101C200000104621502003F039FD32A010210B4650
:101C30006422CDE900101146502003F02FFD2FA0A3
:101C400010210B466422CDE900108221502003F0C0
:101C500025FD2AA010210B466422CDE90010A02109
:101C6000502003F01BFD22A010210B466422CDE979
:101C70000010BE21502003F011FD1DA010210B46C5
:101C80006422CDE90010DC21502003F007FD18A0EC
:101C900010210B466422CDE90010FA21502003F0F8
:101CA000FDFC1CBD4200002044000020536D617209
:101CB0007420477265656E686F757365000000007B
:101CC0004D6F64653A00000054656D703A00000085
:101CD00048756D693A0000004C696768743A000005
:101CE00046616E3A0000000050756D703A000000C9
:101CF0002D2D2D002D2D2D20430000002D2D2D25C7
:101D00000000000030B5044604254FF4302000F0F8
:101D100085F80546042D17D10C48006940F00200F3
:101D20000A49086108464461006940F040000861C2
:101D30004FF4302000F072F805460448006941F67F
:101D4000FD71084001490861284630BD002002406D
:101D500004200B49C96801F0010109B101200EE01E
:101D60000749C96801F0040109B1022007E00449EC
:101D7000C96801F0100109B1032000E00420704798
:101D8000002002400348006940F0800001490861DA
:101D9000704700000020024078B506460C46042536
:101DA00000200090E80200F039F80546042D24D107
:101DB0001348006940F00100114908613480E802CD
:101DC00000F02CF80546042D10D1B01C0090200C1A
:101DD00000990880E80200F021F8054608480069EB
:101DE00041F6FE7108400649086106E004480069B2
:101DF00041F6FE71084002490861284678BD00009E
:101E00000020024002480349486003484860704788
:101E10002301674500200240AB89EFCD00B50246A3
:101E20000423FFF795FF034603E0FFF791FF034606
:101E3000521E012B01D1002AF7D102B90523184601
:101E400000BD000051B18200A2F1C042126842F010
:101E500001038200A2F1C042136009E08200A2F1F6
:101E6000C0421268034B1A408300A3F1C0431A60BA
:101E700070470000FEFF0F00D0E901121143C26855
:101E80001143026911434269114382691143C269D6
:101E90001143026A1143426A1143826A1143C26AC2
:101EA0001143026B114302689200A2F1C04211601B
:101EB000816808290BD101688900A1F1C041096836
:101EC00041F0400201688900A1F1C0410A60416B04
:101ED0000968426B526841EA0211426B926841EA1A
:101EE0000221426B928941EA0241426B128A41EA25
:101EF0000251426B127D41EA0261426B92691143C9
:101F00000268521C9200A2F1C0421160C16AB1F590
:101F1000804F1BD1816B0968826B526841EA0211C4
:101F2000826B926841EA0221826B128A41EA025175
:101F3000826B127D41EA0261826B926911430268F1
:101F40009200A2F1C042C2F8041107E06FF07042A3
:101F500001688900A1F1C041C1F804217047000067
:101F600001480078704700001D00002010B50848A7
:101F700004F0CAFF04460748008808B9002010BDD5
:101F80006420604303490988B0FBF1F0C0B2F6E772
:101F9000000400408400002030B589B004460D469E
:101FA0000121042003F02CFE0121022003F018FE81
:101FB0004020ADF8040003208DF8060018208DF8AD
:101FC000070001A9194800F0F3F819480480ADF89A
:101FD0001C40ADF818500020ADF81E00ADF81A00F6
:101FE00006A9144804F0ECFF6020ADF808000020BA
:101FF000ADF810000120ADF80A0002A90D4804F068
:1020000087FF08210B4804F0CFFF0121094804F0A5
:1020100063FF0121074804F06BFF0021054804F02D
:10202000CCFF05A005F0F6F909B030BD000801406D
:10203000840000200004004046616E2050574D3A55
:102040002048617264776172652050574D20696E37
:10205000697469616C697A6174696F6E20636F6D10
:10206000706C65746520285041362C2054494D33DE
:102070005F434831290D0A0070B504460E480578C3
:10208000642C00DD64240C48047021460BA005F08C
:10209000C1F9204600F05AF8A54204D0224629464C
:1020A00013A005F0B7F9FFF75BFF064631461EA007
:1020B00005F0B0F970BD00001D00002046616E5FA4
:1020C0005365745F53706565642063616C6C65640F
:1020D0003A2073657474696E67202564252520286D
:1020E00048617264776172652050574D290D0A006E
:1020F00046616E20737065656420757064617465F7
:10210000643A2025642525202D3E202564252520A0
:102110002850574D206170706C69656420746F2081
:10212000504136290D0A000046616E5F4765745FB5
:102130005370656564206E6F772072657475726E7A
:10214000733A20256425250D0A00000070B5044669
:10215000642C00DD64240A48008800B970BD08487A
:1021600000886043642190FBF1F5A9B2054804F0B2
:1021700024FF2A46214604A005F04CF900BFEDE7F4
:10218000840000200004004046616E2050574D3A04
:102190002053706565642073657420746F20256416
:1021A000252520284343523D2564290D0A000000BF
:1021B0002DE9F041024600250026002000230024DE
:1021C000002791F803C00CF00F0591F803C00CF044
:1021D000100CBCF1000F03D091F802C04CEA0505C9
:1021E00091F800C0BCF1000F31D0146800202BE042
:1021F0004FF0010C0CFA00F3B1F800C00CEA030632
:102200009E4220D183004FF00F0C0CFA03F7BC4321
:1022100005FA03FC4CEA040491F803C0BCF1280F52
:1022200006D14FF0010C0CFA00FCC2F814C00AE011
:1022300091F803C0BCF1480F05D14FF0010C0CFA26
:1022400000FCC2F810C0401C0828D1D31460B1F8BB
:1022500000C0BCF1FF0F34DD546800202EE000F117
:10226000080C4FF0010808FA0CF3B1F800C00CEAB2
:1022700003069E4221D183004FF00F0C0CFA03F7A6
:10228000BC4305FA03FC4CEA040491F803C0BCF11A
:10229000280F05D100F1080C08FA0CF8C2F81480D8
:1022A00091F803C0BCF1480F07D100F1080C4FF0C2
:1022B000010808FA0CF8C2F81080401C0828CED398
:1022C0005460BDE8F0810000F0B50A460023002408
:1022D0000021002500F00046B6F1004F02D11D4E4E
:1022E000F16901E01B4E7168C0F3034583B200F44D
:1022F0004016B6F5401F08D121F07061154E766882
:1023000026F07066134F7E6012E000F48016B6F57A
:10231000801F06D1032606FA05F4A14341F070613F
:1023200006E0460D360103FA06F6B14341F070614E
:1023300022B1460D360103FA06F6314300F000469D
:10234000B6F1004F02D1034EF16101E0014E716020
:10235000F0BD0000000001400246002093680B40E1
:102360000BB1012000E0002070474161704701611E
:102370007047C160704700002DE9F05F8748C07862
:1023800008B1BDE8F09F0020FEF756FC05468448E2
:1023900090F8089081480178A94234DB0078282819
:1023A00001DB46240CE07D480078232801DB322441
:1023B00006E07A4800781E2801DB232400E0192477
:1023C0007648007978B90120744908710846017887
:1023D00023462A4673A005F01DF800230122194662
:1023E0001046FEF745FFFFF7C1FD8046A0455BD0D4
:1023F0002046FFF741FE694801782346424677A010
:1024000005F008F850E065480078A5EB090188421E
:1024100020DA7E4804F0FEFF60480079012843D1AD
:102420005E480078192802DC794804F0F3FF0020A8
:102430005A490871FFF720FEA5EB090257480178B9
:1024400074A004F0E7FF00231A4601210220FEF7E2
:102450000FFF29E051480079012822D14F48007828
:10246000282801DB46240CE04C480078232801DBB7
:10247000322406E0494800781E2801DB232400E0CE
:102480001424FFF773FD8046A0450DD02046FFF7CA
:10249000F3FD424801782346424666A004F0BAFFA5
:1024A00002E0724804F0B6FF0320FEF7C5FB0646C3
:1024B0003B4890F80CA039484178B14214DC40798F
:1024C00000282DD101203549487103F00BFA33481B
:1024D0004178324666A004F09DFF00230122194690
:1024E0000320FEF7C5FE1BE02C48407806EB0A01EE
:1024F000884215DD29484079012811D1002027495B
:10250000487103F0EFF906EB0A022448417863A012
:1025100004F080FF00231A4601210420FEF7A8FEE4
:102520000620FEF789FB07461D4890F80FB01B48B0
:102530008178B94213DA807968BB01201749887124
:1025400003F036F9154881783A465CA004F062FF42
:102550000023012219460520FEF78AFE1BE00F48E2
:10256000807807EB0B01884215DD0C488079012843
:1025700011D100200949887103F01AF907EB0B0209
:102580000648817855A004F045FF00231A46012132
:102590000620FEF76DFE00BFF3E60000F400002009
:1025A0005C0000204175746F2046616E204F4E2004
:1025B000666F7220436F6F6C696E672028543D25EB
:1025C00064C2B0433E3D2564C2B0432920537065C8
:1025D00065643D256425250D0A00000046616E20D6
:1025E0005370656564204175746F2041646A75732A
:1025F000743A20543D2564C2B0432C20256425251F
:1026000020E2869220256425250D0A0044D000088A
:1026100000D000084175746F2046616E204F464619
:102620002028543D2564C2B0433C2564C2B04329F0
:102630000D0A000046616E2053706565642048797C
:1026400073746572657369732041646A7573743A53
:1026500020543D2564C2B0432C202564252520E26A
:10266000869220256425250D0A000000CCD00008A4
:102670004175746F2050756D70204F4E20666F72DB
:10268000207761746572696E672028483D2564254E
:10269000253C3D25642525290D0A00004175746FF0
:1026A0002050756D70204F46462028483D256425F2
:1026B000253E25642525290D0A0000004175746F0B
:1026C000204C69676874204F4E20284C3D256425B6
:1026D000253C25642525290D0A0000004175746FED
:1026E000204C69676874204F464620284C3D25647D
:1026F00025253E25642525290D0A00002DE9F041F8
:102700003B4805784678877800240120FEF794FA44
:10271000A84201DA44F001040220FEF78DFAA84233
:1027200001DD44F002040420FEF786FAB04201DA2B
:1027300044F004040520FEF77FFAB04201DD44F0C6
:1027400008040720FEF778FAB84201DD44F01004CF
:102750002748007A00F0010008B144F02004244822
:10276000C079A04242D02248C4714CB90020FEF783
:10277000B7F9002002F0DAFF1EA004F04BFE35E0AE
:1027800004F0200018B10620FEF7AAF921E004F0B9
:10279000010018B10120FEF7A3F91AE004F00200CD
:1027A00018B10220FEF79CF913E004F0080018B1FC
:1027B0000420FEF795F90CE004F0040018B10320A2
:1027C000FEF78EF905E004F0100010B10520FEF7C9
:1027D00087F9012002F0AAFF21460CA004F01AFE9E
:1027E0003B46324629462046FEF716FDBDE8F081FD
:1027F000F4000020416C6C20616C61726D73206389
:102800006C65617265642E0D0A0000005379737463
:10281000656D20616C61726D2074726967676572A5
:1028200065642120466C61673A20253032580D0AD4
:102830000000000070B5D248008820B1D04801885F
:10284000D0A004F0E7FDCE48008800F40040002846
:1028500001F050860020CA490988C1F30D01D24A0F
:102860005054D2480088401CD0490880C448008891
:10287000C0F30D0308460188CDA004F0CBFDD5A11F
:10288000C948FDF7A1FC002840D0D4A004F0C2FD47
:10289000D8480178D8A004F0BDFDD6484178DCA026
:1028A00004F0B8FDD3488178DEA004F0B3FDD14830
:1028B000C07808B1DFA000E0E0A00146E1A004F08C
:1028C000A9FDCC48007B08B1E1A000E0E1A00146F1
:1028D000E1A004F09FFDC74890F8200008B1DCA0FB
:1028E00000E0DCA00146DFA004F094FDC14890F8B0
:1028F000340008B1D6A000E0D6A00146DCA004F068
:1029000089FDDEA004F086FD01F0F1BDE1A1A6483D
:10291000FDF75AFC002838D0B648C07801282DD1E0
:10292000DEA004F077FDB348007B012808D1002029
:10293000FFF70CFC0020AF490873E2A004F06AFD29
:10294000AC4890F82000012809D1002002F0CAFF0D
:102950000020A84981F82000E7A004F05BFDA5480D
:1029600090F83400012809D1002002F021FF002056
:10297000A04981F83400EFA004F04CFD00209D49EF
:10298000C870F94804F046FDBEE7F8A18648FDF797
:102990001BFC78B19748C07828B9F6A004F03AFD3E
:1029A000FE4804F037FD01209249C870FC4804F04D
:1029B00031FDA9E7FBA17C48FDF706FC10B38D486B
:1029C000C07801281AD16420FFF7C0FB0120894993
:1029D0000871012187480C3002F0A6F8F3A004F03A
:1029E00019FD02F0CDF8FFF7BBFA0446814B9A7946
:1029F00059791879234603F057FC85E7F3A004F0D2
:102A000009FD81E7FBA16848FDF7DEFB10B37948BB
:102A1000C07801281AD10020FFF798FB00207549E3
:102A20000871002173480C3002F07EF8F3A004F026
:102A3000F1FC02F0A5F8FFF793FA04466D4B9A7982
:102A400059791879234603F02FFC5DE7DFA004F0E5
:102A5000E1FC59E7EEA15448FDF7B6FB08B3654821
:102A6000C078012819D102F03DFF01206149487169
:102A700001216048203002F057F8E7A004F0CAFCBA
:102A800002F07EF8FFF76CFA04465A4B9A795979AE
:102A90001879234603F008FC36E7CCA004F0BAFC12
:102AA00032E7E2A14048FDF78FFB10B35148C078F0
:102AB00001281AD1002002F015FF00204D4948716D
:102AC00000214C48203002F02FF8DBA004F0A2FCDB
:102AD00002F056F8FFF744FA0446464B9A795979C2
:102AE0001879234603F0E0FB0EE7B8A004F092FC4F
:102AF0000AE7D6A12C48FDF767FB08B33D48C0782C
:102B0000012819D102F054FE01203A4988710121AF
:102B10003848343002F008F8CFA004F07BFC02F013
:102B20002FF8FFF71DFA0446324B9A795979187934
:102B3000234603F0B9FBE7E6A4A004F06BFCE3E650
:102B4000CAA11948FDF740FBC0B12A48C078012846
:102B500015D1002002F02CFE0020264988710021AA
:102B60002448343001F0E0FFC3A004F053FC02F02D
:102B700007F8FFF7F5F904461E4B87E192E18CE177
:102B8000AA0000205B44454255475D205553415201
:102B900054335F52585F535441203D2030782530E4
:102BA00034580D0A00000000270300202E000020EA
:102BB0005B42545F434D445F25645D20526563650D
:102BC000697665643A20257320286C656E3D25641E
:102BD000290D0A0053544154555300003D3D3D20FA
:102BE00053797374656D20537461747573203D3D22
:102BF0003D0D0A00F400002054656D70657261742B
:102C00007572653A202564C2B0430D0A00000000C9
:102C100048756D69646974793A20256425250D0A23
:102C2000000000004C696768743A20256425250D72
:102C30000A0000004D616E75616C00004175746F93
:102C4000000000004D6F64653A2025730D0A0000F6
:102C50004F4E00004F46460046616E3A2025730DE8
:102C60000A00000050756D703A2025730D0A0000AF
:102C70004C696768743A2025730D0A003D3D3D3D5F
:102C80003D3D3D3D3D3D3D3D3D3D3D3D3D3D3D3D74
:102C90000D0A00004155544F00000000537769743D
:102CA0006368696E672066726F6D204D414E5541B5
:102CB0004C20746F204155544F206D6F64652E2E4B
:102CC0002E0D0A004175746F3A2046616E207475AE
:102CD000726E6564204F464620286D616E75616C8A
:102CE000206F7665727269646520636C65617265D8
:102CF00064290D0A000000004175746F3A20507578
:102D00006D702F4D617271756565207475726E6599
:102D100064204F464620286D616E75616C206F7689
:102D200065727269646520636C6561726564290D02
:102D30000A0000004175746F3A204C69676874207E
:102D40007475726E6564204F464620286D616E75FD
:102D5000616C206F7665727269646520636C656171
:102D6000726564290D0A000064D100084D414E557A
:102D7000414C0000537769746368696E672066721E
:102D80006F6D204155544F20746F204D414E554179
:102D90004C206D6F64652E2E2E0D0A0088D0000821
:102DA00014D1000846414E5F4F4E000046616E2030
:102DB0007475726E6564204F4E20283130302525A1
:102DC00020706F776572290D0A0000004572726FDE
:102DD000723A2053776974636820746F204D414EB6
:102DE00055414C206D6F64652066697273740D0ADD
:102DF0000000000046414E5F4F46460046616E208F
:102E00007475726E6564204F46460D0A000000001E
:102E100050554D505F4F4E0050756D702074757257
:102E20006E6564204F4E0D0A0000000050554D5055
:102E30005F4F46460000000050756D70207475723B
:102E40006E6564204F46460D0A0000004C49474815
:102E5000545F4F4E000000004C6967687420747521
:102E6000726E6564204F4E0D0A0000004C494748C1
:102E7000545F4F46460000004C69676874207475C3
:102E8000726E6564204F46460D0A00009A795979A2
:102E90001879234603F008FA36E5AFF2D00004F0C3
:102EA000B9FA31E570A17248FDF78EF900281CD0FF
:102EB00070A004F0AFFA7648D0F89C1075A004F02A
:102EC000A9FA7348818B79A004F0A4FA7048018EA6
:102ED0007BA004F09FFA6E48B0F844107DA004F087
:102EE00099FA82A004F096FA0EE587A16048FDF7F2
:102EF0006BF90028D0D186A15D48FDF765F960B176
:102F000087A004F087FA8EA004F084FA95A004F05C
:102F100081FAA0A004F07EFAF6E4A6A15448FDF7D9
:102F200053F970B1A5A004F075FAACA004F072FAE0
:102F300001F036FFAFA004F06DFAB7A004F06AFA12
:102F4000E2E4BDA14A48FDF73FF940B1BCA004F05E
:102F500061FA01F091FFC2A004F05CFAD4E4C9A1C7
:102F60004348FDF731F940B1C8A004F053FA01F02D
:102F7000F3FE5EA004F04EFAC6E4CBA13C48FDF798
:102F800023F940B1CAA004F045FA01F015FF57A09B
:102F900004F040FAB8E4CDA13548FDF715F940B189
:102FA000CCA004F037FA01F0E3FEAEA004F032FA50
:102FB000AAE4D0A12E48FDF707F9B8B1CFA004F0DC
:102FC00029FA01F005FF04461CB9D3A004F022FA47
:102FD00008E0012C03D1D7A004F01CFA02E0DCA029
:102FE00004F018FAA0A004F015FA8DE4DDA1204841
:102FF000FDF7EAF840B1DEA004F00CFA01F0C4FEDF
:1030000086A004F007FA7FE4E0A11948FDF7DCF898
:1030100080B1E0A004F0FEF902F084F918B9E3A051
:1030200004F0F8F902E0E8A004F0F4F930A004F0AC
:10303000F1F969E4ECA10E48FDF7C6F898B1EDA0EE
:1030400004F0E8F902F0D8F830B9F1A004F0E2F9A0
:10305000F5A004F0DFF902E0FBA004F0DBF96FA0BB
:1030600004F0D8F950E4FBE15354415453000000FC
:10307000270300203D3D3D2053797374656D205337
:10308000746174697374696373203D3D3D0D0A007A
:10309000F400002052756E2074696D653A20256C2D
:1030A00075207365636F6E64730D0A0046616E2050
:1030B00073776974636865733A2025640D0A0000AC
:1030C00050756D702073776974636865733A202555
:1030D000640D0A004C6967687420737769746368CB
:1030E00065733A2025640D0A000000003D3D3D3D1A
:1030F0003D3D3D3D3D3D3D3D3D3D3D3D3D3D3D3D00
:103100003D3D3D3D0D0A00005452454E4400000037
:1031100053454E534F525F53544154555300000092
:103120003D3D3D2044485431312053656E736F72EC
:1031300020537461747573203D3D3D0D0A000000FD
:1031400043757272656E74204D6F64653A205265E6
:10315000616C2053656E736F72204D6F64650D0A4C
:10316000000000004E6F74653A2053797374656DEA
:103170002077696C6C206175746F2D72657472793B
:103180002069662072656164206661696C730D0A4E
:10319000000000003D3D3D3D3D3D3D3D3D3D3D3D53
:1031A0003D3D3D3D3D3D3D3D3D3D3D3D3D3D3D0D7F
:1031B0000A00000042545F4E414D45003D3D3D2018
:1031C000426C7565746F6F746820446576696365D9
:1031D00020496E666F203D3D3D0D0A0043757272B9
:1031E000656E7420646576696365206E616D653A0D
:1031F000200000004E6F74653A204465766963656F
:10320000206E616D652069732073657420746F2072
:1032100027534248270D0A003D3D3D3D3D3D3D3D84
:103220003D3D3D3D3D3D3D3D3D3D3D3D3D3D3D3DCE
:103230003D3D3D3D3D0D0A0042545F564552000064
:103240003D3D3D2048433035204669726D776172BF
:10325000652056657273696F6E203D3D3D0D0A0015
:103260003D3D3D3D3D3D3D3D3D3D3D3D3D3D3D3D8E
:103270003D3D3D3D3D3D3D3D3D3D3D3D3D3D0D0AE1
:103280000000000042545F41444452003D3D3D2057
:1032900048433035204D4143204164647265737367
:1032A000203D3D3D0D0A000042545F50494E000054
:1032B0003D3D3D20484330352050616972696E675D
:1032C0002050494E203D3D3D0D0A000042545F42D2
:1032D000415544003D3D3D20484330352055415245
:1032E00054204261756472617465203D3D3D0D0A54
:1032F0000000000042545F524F4C45003D3D3D20D0
:103300004843303520526F6C65204D6F6465203D19
:103310003D3D0D0A0000000043757272656E742019
:10332000526F6C653A20536C617665204D6F646511
:103330000D0A000043757272656E7420526F6C65E1
:103340003A204D6173746572204D6F64650D0A00FB
:10335000526F6C65205175657279204661696C65A4
:10336000640D0A0042545F434C4153530000000077
:103370003D3D3D20484330352044657669636520F6
:10338000436C617373203D3D3D0D0A0042545F5410
:10339000455354003D3D3D204843303520415420A5
:1033A00054657374203D3D3D0D0A00004154204397
:1033B0006F6D6D616E6420526573706F6E73653AE8
:1033C000204F4B0D0A000000415420436F6D6D618A
:1033D0006E6420526573706F6E73653A2046414982
:1033E0004C45440D0A00000042545F524553455479
:1033F000000000003D3D3D2048433035204D6F64C6
:10340000756C65205265736574203D3D3D0D0A0065
:103410004D6F64756C652052657365743A20535521
:1034200043434553530D0A005761697420666F7218
:10343000206D6F64756C6520726573746172742E93
:103440002E2E0D0A000000004D6F64756C65205231
:10345000657365743A204641494C45440D0A0000A5
:1034600085A18748FCF7B0FE00284BD085A003F06B
:10347000D1FF8DA003F0CEFF0020934908600A2001
:1034800004F060FC91A003F0C5FF01209549C1F84C
:1034900090010A2004F056FC93A003F0BBFF00202B
:1034A0008949086095A003F0B5FF9AA003F0B2FF28
:1034B0008C48D0F83C0108B19FA000E0A0A00146D4
:1034C000A0A003F0A7FF80485438006818B9A2A054
:1034D00003F0A0FF02E0A9A003F09CFFADA003F061
:1034E00099FF01F01FFF18B9B2A003F093FF05E0A8
:1034F000B6A003F08FFFBBA003F08CFFC1A003F0C8
:1035000089FFC9E4C7A15E48FCF75EFE60B10120F7
:1035100002F0BAFDC649087802F0B0FFC44801784D
:10352000C4A003F077FFB7E4CFA15548FCF74CFEE9
:1035300060B1022002F0A8FDBD49487802F046FEC5
:10354000BB484178CCA003F065FFA5E4D6A14C4868
:10355000FCF73AFE60B1032002F096FDB44988788A
:1035600002F06EFEB2488178D2A003F053FF93E4DC
:10357000DBA14348FCF728FE60B1042002F084FD83
:10358000AB4B9A795979187902F024FFD7A003F050
:1035900041FF81E4E0A13A48FCF716FE40B100206B
:1035A00002F072FD02F042FCDDA003F033FF73E491
:1035B000E2A13348FCF708FE40B1052002F064FDAB
:1035C00002F0A6FFE0A003F025FF65E4E7A12C4888
:1035D000FCF7FAFD48B1052002F056FDFF2002F08D
:1035E0008DFFE6A003F016FF56E4EDA12448FCF79A
:1035F000EBFD40B1052002F047FD02F091FFEBA08A
:1036000003F008FF48E4F2A11D48FCF7DDFD50B1CE
:10361000062002F039FD4FF47F4002F0AFFDEFA02D
:1036200003F0F8FE38E4F5A11548FCF7CDFD48B1EC
:10363000062002F029FDF44802F0A4FEF3A003F0F6
:10364000E9FE29E4F9A10E48FCF7BEFD50B10620C1
:1036500002F01AFD4FF47F0002F040FDF6A003F0E7
:10366000D9FE19E4FDA10648FCF7AEFD18B106200D
:1036700002F00AFDF8E1FFE142545F44494147008E
:10368000270300203D3D3D204843303520486172EE
:10369000647761726520446961676E6F73746963F2
:1036A00073203D3D3D0D0A005465737420313A206E
:1036B0004B45592050696E20436F6E74726F6C2EAB
:1036C0002E2E0D0A000000009001214220204B45C3
:1036D000593D303A204E6F726D616C206D6F64659C
:1036E0000D0A00000000214220204B45593D313A8F
:1036F000204154206D6F64650D0A000020204B4569
:103700005920636F6E74726F6C3A20504153530DA1
:103710000A0000005465737420323A204C4544205E
:1037200053746174757320446574656374696F6E56
:103730002E2E2E0D0A0000004849474800000000C8
:103740004C4F570020204C454420537461747573CE
:103750003A2025730D0A000020205741524E494E51
:10376000473A204C4544204C4F57202D2043686554
:10377000636B20706F7765720D0A000020204C4546
:103780004420646574656374696F6E3A20504153D8
:10379000530D0A005465737420333A20415420437A
:1037A0006F6D6D616E6420546573742E2E2E0D0A3C
:1037B000000000002020415420526573706F6E732A
:1037C000653A20504153530D0A0000002020415417
:1037D00020526573706F6E73653A204641494C45BF
:1037E000440D0A002020436865636B205458442F21
:1037F00052584420636F6E6E656374696F6E730D0B
:103800000A0000003D3D3D20446961676E6F73749E
:1038100069637320436F6D706C657465203D3D3D39
:103820000D0A00005247425F54454D500000000011
:10383000F40000205247423A2054656D7065726171
:103840007475726520646973706C6179206D6F6442
:10385000652061637469766174656420282564C29B
:10386000B043290D0A0000005247425F48554D49B8
:1038700044495459000000005247423A2048756DAF
:10388000696469747920646973706C6179206D6F03
:1038900064652061637469766174656420282564B9
:1038A0002525290D0A0000005247425F4C49474830
:1038B000540000005247423A204C69676874206403
:1038C0006973706C6179206D6F64652061637469E0
:1038D0007661746564202825642525290D0A000079
:1038E0005247425F53544154555300005247423AA5
:1038F0002053797374656D207374617475732064DB
:103900006973706C6179206D6F646520616374699F
:1039100076617465640D0A005247425F4F46460067
:103920005247423A20446973706C61792074757211
:103930006E6564206F66660D0A0000005247425FA4
:103940005241494E424F57005247423A2052616914
:103950006E626F7720616E696D6174696F6E20733E
:103960007461727465640D0A000000005247425F82
:10397000425245415448494E470000005247423A9E
:1039800020427265617468696E6720616E696D615D
:1039900074696F6E20737461727465640D0A00003F
:1039A0005247425F464C4F57000000005247423A90
:1039B00020576174657220666C6F7720616E696D47
:1039C0006174696F6E20737461727465640D0A00AE
:1039D0005247425F48454152540000005247423A24
:1039E000204865617274207061747465726E206421
:1039F0006973706C617965640D0A00005247425F1B
:103A0000534D494C4559000000FFFF005247423AD0
:103A100020536D696C6579207061747465726E20D5
:103A2000646973706C617965640D0A005247425F86
:103A3000434845434B0000005247423A20436865E3
:103A4000636B206D61726B207061747465726E209F
:103A5000646973706C617965640D0A005247425F56
:103A600043524F53530000004FF47F4002F05EFB7F
:103A700074A003F0CFFC44E57AA17D48FCF7A4FBD9
:103A800050B1062002F000FB4FF47F0002F052FC20
:103A900078A003F0BFFC34E57EA17548FCF794FBE9
:103AA00080B1062002F0F0FAFEF75AFA04467D4B88
:103AB0009A7959791879234602F0F6FB7AA003F037
:103AC000A9FC1EE583A16A48FCF77EFB50B10720E4
:103AD00002F0DAFA4FF47F4002F0B7FA7FA003F069
:103AE00099FC0EE584A16248FCF76EFB50B10720FB
:103AF00002F0CAFA4FF47F0002F0A7FA81A003F0A7
:103B000089FCFEE487A15A48FCF75EFB48B1072018
:103B100002F0BAFAFF2002F098FA85A003F07AFCCE
:103B2000EFE48AA15248FCF74FFB50B1072002F0A6
:103B3000ABFA6FF07F4002F088FA87A003F06AFCCE
:103B4000DFE48DA14A48FCF73FFB48B1072002F0B3
:103B50009BFA8C4802F079FA8BA003F05BFCD0E46E
:103B600091A14348FCF730FB50B1072002F08CFADA
:103B70004FF6FF7002F069FA8EA003F04BFCC0E430
:103B800094A13B48FCF720FB50B1072002F07CFADF
:103B90004FF0FF1002F059FA91A003F03BFCAAE2AB
:103BA00096A13348FCF710FBC8B194A13048FCF74C
:103BB0000BFB054695B105F10A00FCF727FBC4B2E3
:103BC000642C07DC204602F057FA21468EA003F051
:103BD00021FC02E094A003F01DFC00BF8BE29CA13D
:103BE0002348FCF7F1FA00282AD09BA003F012FC2E
:103BF000A2A003F00FFCA6A003F00CFCADA003F004
:103C000009FCB4A003F006FCBBA003F003FCBFA0BA
:103C100003F000FCC6A003F0FDFBCEA003F0FAFB0E
:103C2000D6A003F0F7FBDBA003F0F4FBE4A003F065
:103C3000F1FBEEA003F0EEFBF7A003F0EBFBFFE1DE
:103C40005AE200005247423A2043726F7373207069
:103C500061747465726E20646973706C61796564F7
:103C60000D0A00005247425F524F424F540000007D
:103C7000270300205247423A20526F626F7420702F
:103C800061747465726E20646973706C61796564C7
:103C90000D0A00005247425F4D414E55414C5F4670
:103CA00041434500F40000205247423A204D616EE6
:103CB00075616C207374617475732066616365202F
:103CC0007061747465726E20646973706C6179657B
:103CD000640D0A005247425F524544005247423A3F
:103CE0002052656420636F6C6F7220646973706C1E
:103CF000617965640D0A00005247425F47524545AD
:103D00004E0000005247423A20477265656E2063BC
:103D10006F6C6F7220646973706C617965640D0AF1
:103D2000000000005247425F424C55450000000031
:103D30005247423A20426C756520636F6C6F722067
:103D4000646973706C617965640D0A005247425F63
:103D500057484954450000005247423A2057686985
:103D6000746520636F6C6F7220646973706C617925
:103D700065640D0A000000005247425F59454C4CF3
:103D80004F57000000FFFF005247423A2059656C30
:103D90006C6F7720636F6C6F7220646973706C61F5
:103DA0007965640D0A0000005247425F5055525039
:103DB0004C4500005247423A20507572706C6520A5
:103DC000636F6C6F7220646973706C617965640DE8
:103DD0000A0000005247425F4359414E0000000074
:103DE0005247423A204379616E20636F6C6F7220B4
:103DF000646973706C617965640D0A005247425FB3
:103E000042524947485400005247423A20427269A0
:103E10006768746E6573732073657420746F2025F2
:103E20006425250D0A0000005247423A20496E766B
:103E3000616C6964206272696768746E657373206F
:103E400076616C75652028302D313030290D0A00DF
:103E500048454C50000000003D3D3D20426C7565DA
:103E6000746F6F746820436F6D6D616E6420486578
:103E70006C70203D3D3D0D0A0000000042617369F9
:103E80006320436F6D6D616E64733A0D0A0000002C
:103E90002020535441545553202D2051756572797B
:103EA0002073797374656D207374617475730D0A72
:103EB0000000000020204155544F202D20537769E9
:103EC00074636820746F206175746F206D6F646512
:103ED0000D0A000020204D414E55414C202D20530D
:103EE000776974636820746F206D616E75616C20F2
:103EF0006D6F64650D0A0000446576696365204353
:103F00006F6E74726F6C3A0D0A00000020204641FB
:103F10004E5F4F4E2F46414E5F4F4646202D204666
:103F2000616E20636F6E74726F6C0D0A000000008A
:103F3000202050554D505F4F4E2F50554D505F4FE4
:103F40004646202D2050756D7020636F6E74726F21
:103F50006C0D0A0020204C494748545F4F4E2F4CAF
:103F6000494748545F4F4646202D204C6967687486
:103F700020636F6E74726F6C0D0A0000524742200E
:103F8000446973706C6179204D6F6465733A0D0AF2
:103F90000000000020205247425F54454D50202D24
:103FA0002054656D706572617475726520766973F1
:103FB00075616C697A6174696F6E0D0A00000000AA
:103FC00020205247425F48554D4944495459202DBD
:103FD0002048756D69646974792076697375616CC0
:103FE000697A6174696F6E0D0A00000020205247E3
:103FF000425F4C49474854202D204C696768742023
:104000006C6576656C2076697375616C697A61742C
:10401000696F6E0D0A00000020205247425F535422
:1040200041545553202D2053797374656D2073745A
:104030006174757320646973706C61790D0A000096
:104040002EA003F0E7F936A003F0E4F939A003F05D
:10405000E1F941A003F0DEF949A003F0DBF951A03A
:1040600003F0D8F953A003F0D5F95AA003F0D2F920
:1040700062A003F0CFF96AA003F0CCF970A003F0BE
:10408000C9F973A003F0C6F97DA003F0C3F981A0BC
:1040900003F0C0F98EA003F0BDF992A003F0BAF9C5
:1040A0009AA003F0B7F99FA003F0B4F9A9A003F018
:1040B000B1F9B3A003F0AEF9B6A003F0ABF9BDA01F
:1040C00003F0A8F9C3A003F0A5F9C8A003F0A2F972
:1040D000CEA003F09FF9D6A003F09CF9DCA003F07A
:1040E00099F9E3A003F096F9E8A003F093F9EEA0A4
:1040F00003F090F9E8E1FAE1F6E1000020205247F0
:10410000425F4F4646202D205475726E206F6666C2
:104110002052474220646973706C61790D0A000077
:1041200052474220416E696D6174696F6E733A0D3A
:104130000A00000020205247425F5241494E424F40
:1041400057202D205261696E626F77206566666523
:1041500063740D0A0000000020205247425F425263
:1041600045415448494E47202D204272656174688C
:10417000696E67206566666563740D0A000000005D
:1041800020205247425F464C4F57202D20576174E4
:10419000657220666C6F77206566666563740D0ACC
:1041A00000000000524742205061747465726E73C3
:1041B0003A0D0A0020205247425F484541525420A0
:1041C0002D204865617274207061747465726E0D83
:1041D0000A00000020205247425F534D494C455988
:1041E000202D20536D696C657920666163652070B0
:1041F00061747465726E0D0A000000002020524741
:10420000425F434845434B202D20436865636B2044
:104210006D61726B207061747465726E0D0A0000BE
:1042200020205247425F43524F5353202D20437268
:104230006F7373207061747465726E0D0A000000F4
:1042400052474220436F6C6F72733A0D0A000000B0
:1042500020205247425F5245442F475245454E2F3A
:10426000424C55452F57484954452F59454C4C4FC2
:10427000572F505552504C452F4359414E0D0A006F
:10428000524742204272696768746E6573733A0DD3
:104290000A00000020205247425F425249474854DA
:1042A0005B302D3130305D202D20536574206272DB
:1042B000696768746E6573732028652E672E2C20DD
:1042C0005247425F4252494748543330290D0A0051
:1042D00053656E736F7220436F6E74726F6C3A0D1C
:1042E0000A000000202053454E534F525F53544163
:1042F000545553202D2051756572792073656E7366
:104300006F72207374617475730D0A0043616C6978
:1043100062726174696F6E20436F6D6D616E64735C
:104320003A0D0A00202043414C5F54454D503AC29B
:10433000B176616C7565202D2054656D7065726174
:10434000747572652063616C6962726174696F6E05
:104350000D0A0000202043414C5F48554D493AC2A8
:10436000B176616C7565202D2048756D696469743E
:10437000792063616C6962726174696F6E0D0A0005
:10438000517565727920436F6D6D616E64733A0D7E
:104390000A00000020205354415453202D2053790B
:1043A0007374656D20537461746973746963730DFC
:1043B0000A00000020205452454E44202D20456E16
:1043C0007669726F6E6D656E74205472656E640DE1
:1043D0000A000000426C7565746F6F746820436F4B
:1043E0006D6D616E64733A0D0A0000002020425426
:1043F0005F4E414D45202D20476574204465766908
:104400006365204E616D650D0A0000002020425456
:104410005F564552202D20476574204669726D779E
:104420006172652056657273696F6E0D0A00000037
:10443000202042545F41444452202D20476574207F
:104440004D414320416464726573730D0A0000009E
:10445000202042545F50494E202D20476574205043
:10446000616972696E672050494E0D0A00000000B4
:10447000202042545F42415544202D20476574203E
:1044800042617564726174650D0A00002020425417
:104490005F524F4C45202D2047657420526F6C654C
:1044A000204D6F64650D0A00202042545F434C414B
:1044B0005353202D20476574204465766963652039
:1044C000436C6173730D0A000BA002F0A3FF12A0EE
:1044D00002F0A0FF17A002F09DFF1FA002F09AFFBC
:1044E000244802F097FF02E023A002F093FF00208F
:1044F0002649088070BD0000202042545F54455377
:1045000054202D20546573742041542052657370DB
:104510006F6E73650D0A0000202042545F524553B0
:104520004554202D205265736574204D6F64756C61
:10453000650D0A00202042545F44494147202D2048
:10454000486172647761726520446961676E6F7358
:10455000746963730D0A0000202048454C50202DDB
:104560002053686F7720546869732048656C700D1C
:104570000A00000060320008556E6B6E6F776E2087
:10458000636F6D6D616E640D0A000000AA0000206B
:1045900010B5FCF77DFC01F03DFA01F0D7F8FCF70F
:1045A00083FA00F0C9FE00F073FC02F035F8FCF766
:1045B00075FDFCF76DFB01F005FC00202749C87074
:1045C000087148718871C8710872487208730021B7
:1045D0002248016141618161818300201F4981F886
:1045E000200000211D4841628162C16201860020D5
:1045F0001A4981F83400002118488163C1630164BD
:10460000A0F8441080F8981080F899100020134901
:10461000C1F89C00A1F8A000642081F8A20000214C
:104620000846FCF7F1FCFCF769FA0DA002F0F2FE77
:1046300014A002F0EFFE1EA002F0ECFE24A002F097
:10464000E9FE2CA002F0E6FE33A002F0E3FE3AA061
:1046500002F0E0FE40A002F0DDFE10BDF4000020FC
:10466000536D61727420477265656E686F7573650E
:104670002053797374656D2053746172746564217D
:104680000D0A000043757272656E74204D6F64658B
:104690003A204155544F20284879737465726573E8
:1046A000697320436F6E74726F6C290D0A000000ED
:1046B000456E68616E6365642046656174757265F8
:1046C0007320456E61626C65643A0D0A000000005B
:1046D0002D20444854313120446174612046696C76
:1046E00074657220262043616C6962726174696F1F
:1046F0006E0D0A002D2048797374657265736973B5
:1047000020436F6E74726F6C20416C676F726974B6
:10471000686D0D0A000000002D2044657669636510
:104720002052756E74696D65204D616E6167656DAF
:10473000656E740D0A0000002D20456E7669726F5B
:104740006E6D656E74205472656E6420416E616C8E
:10475000797369730D0A00002D20456E65726779C3
:10476000204F7074696D697A6174696F6E202620BC
:1047700053616665747920436865636B0D0A0000B8
:104780002DE9F04106460C463348C078012801D097
:10479000BDE8F081012E04D0022E1FD0032E56D189
:1047A0003BE02D480579047134B12D20FDF764FC00
:1047B0002AA002F02FFE05E00020FDF75DFC2FA0EF
:1047C00002F028FE0CB1012000E002200746012380
:1047D000224629463846FCF74BFD38E01E4845790D
:1047E0004471204601F07EF81CB129A002F012FEAF
:1047F00002E02CA002F00EFE0CB1032000E0042029
:1048000007460123224629463846FCF731FD21465A
:104810001148203000F088F919E00F48857984713B
:10482000204600F0C5FF0CB1052000E00620074639
:104830000CB121A000E021A0014621A002F0EAFD78
:104840000123224629463846FCF712FD00BF00BF6F
:10485000FCF754F900BF9BE7F40000204D616E7532
:10486000616C2046616E204F4E2028537065656450
:104870002034352525290D0A000000004D616E7594
:10488000616C2046616E204F46460D0A0000000014
:104890004D616E75616C2050756D70204F4E0D0A24
:1048A000000000004D616E75616C2050756D7020C8
:1048B0004F46460D0A0000004F4E00004F4646008E
:1048C0004D616E75616C204C696768742025730DAD
:1048D0000A0000002DE9F0410546012D06D0022D09
:1048E00028D0032D58D0042D74D164E03B48C678FD
:1048F000C07808B9012000E000203849C870084697
:10490000C07808B136A000E037A0014638A002F018
:1049100081FD3248C07808B1082000E00720074632
:104920002E48C278012331463846FCF7A1FCFCF73B
:10493000E5F84FE02948C07801282CD10A2003F07F
:1049400001FA3048006830BB502003F0FBF92D48D5
:104950000068B0B92148007901281CD1FDF700FB9F
:10496000044604F10A00C4B2642C00DD0024204691
:10497000FDF782FB214624A002F04CFD00F000F977
:1049800009E01648007908B9012000E0002001463E
:104990000120FFF7F5FE1DE01048C078012809D17D
:1049A0000E48407908B9012000E0002001460220AD
:1049B000FFF7E6FE0EE00948C078012809D1074854
:1049C000807908B9012000E0002001460320FFF7AC
:1049D000D7FE00BF00BFBDE8F0810000F40000205A
:1049E0004D414E55414C00004155544F00000000D0
:1049F00053776974636820746F202573206D6F642A
:104A0000650D0A000801234246616E2073706565DA
:104A1000642073657420746F20256425250D0A00B9
:104A200008B518A002F0F6FC00F0B2F820A002F0E1
:104A3000F1FC2A480078401C284908700846007894
:104A40000A280FDB002008702548C07808B125A08F
:104A500000E026A00090224883784278017825A0C3
:104A600002F0D8FC1E48C07808B9FDF785FCFDF7B8
:104A700045FE1B48D0F89C00401C1949C1F89C0019
:104A800008BD0000477265656E686F7573655F5499
:104A900061736B3A205374617274696E6720736539
:104AA0006E736F722072656164696E670D0A000033
:104AB000477265656E686F7573655F5461736B3AB5
:104AC0002053656E736F722072656164696E672032
:104AD000636F6D706C657465640D0A0030000020B2
:104AE000F40000204D616E75616C00004175746FBB
:104AF0000000000053797374656D20537461747500
:104B0000733A20543D2564C2B0432C20483D2564AF
:104B100025252C204C3D256425252C204D6F6465D2
:104B20003D25730D0A00000010B502788A4223D09B
:104B300001290ED1114A126842600278C2B9826816
:104B4000B2B10E4CD0E902322468E31A1A44C260B2
:104B50000EE00A4A126882600278012A08D142688F
:104B600032B1064C4368C2682468E31A1A44C26032
:104B70000170028A521C028210BD00000000002059
:104B800010B50248FCF774FC10BD0000F4000020D2
:104B900030B587B005A906A8FCF7F3F90446DCB9DF
:104BA0009DF818002A4908709DF8140048700846BE
:104BB000007A20F0010008729DF81800254908705D
:104BC0009DF81400244908709DF814209DF81810D1
:104BD00022A002F01FFC11E01D48007A40F0010005
:104BE0001B4908721B48007808701B480078487001
:104BF00008464278017823A002F00CFC00F0F0FE99
:104C000013498870084681782DA002F003FC3448CF
:104C10000088401C3249088008460088052814DBBB
:104C2000002008800A48C0790949C978084A927961
:104C3000074B5B79064DCDE90032CDE902102B79A7
:104C4000AA7869782878FCF7B5FB07B030BD00007A
:104C5000F40000202C0000202D0000204448543196
:104C6000313A205265616420537563636573732024
:104C7000543D2564C2B0432C20483D256425250DB4
:104C80000A00000044485431313A205265616420E2
:104C90004661696C65642C205573696E67204C61B0
:104CA00073742056616C6964204461746120543DC2
:104CB0002564C2B0432C20483D256425250D0A00FB
:104CC0004C696768742053656E736F723A20526541
:104CD0006164696E67204C3D256425250D0A00003E
:104CE0002A00002070B504460120164908600A20F9
:104CF00003F028F8214614A003F0E8FB00260AE0A0
:104D00000A2003F01FF81248008800F4004000B1A8
:104D100003E0701CC6B2322EF2DB00BF002009494E
:104D200008600B48008800F4004038B10848057856
:104D300000200849485504A002F06CFB00200449FB
:104D4000088070BD9001214225730D0A000000000B
:104D5000AA0000202703002010B502A0FFF7C2FF21
:104D600010BD000041542B414444523F000000005C
:104D700010B502A0FFF7B6FF10BD000041542B553F
:104D80004152543F0000000010B502A0FFF7AAFFF7
:104D900010BD000041542B434C4153533F000000D1
:104DA00010B502A0FFF79EFF10BD000041542B4E2E
:104DB000414D453F0000000010B502A0FFF792FFF3
:104DC00010BD000041542B505357443F00000000D9
:104DD0002DE9F0410A2738E001201F4908600A2028
:104DE00002F0B0FF1DA003F071FB00260AE00A20CC
:104DF00002F0A8FF1C48008800F4004000B103E066
:104E0000701CC6B2142EF2DB00BF002012490860ED
:104E10001548008800F40040A0B113480578002030
:104E20001249485512A11148FBF7CEF904464CB17E
:104E3000A41D20783038C5B200200B4908802846D0
:104E4000BDE8F0810020084908803800A7F1010181
:104E5000CFB2C1D1FF20F3E79001214241542B5240
:104E60004F4C453F0D0A0000AA00002027030020F8
:104E70002B524F4C453A000010B502A0FFF732FF0D
:104E800010BD000041542B56455253494F4E3F0030
:104E900038B50121042000F0B3FE1020ADF8000069
:104EA0008DF8030003208DF8020069463848FDF7AD
:104EB0007FF94FF40040ADF8000048208DF8030062
:104EC00069463348FDF774F901213248FDF7FCF9D2
:104ED00031A002F09FFA4FF4165002F097F900202B
:104EE0003B4908604FF4FA7002F02CFF39A002F041
:104EF00091FA00F017FA18B941A002F08BFA02E01B
:104F000049A002F087FA002000F0FAF918B951A080
:104F100002F080FA02E058A002F07CFA5EA000F0F5
:104F2000C7F918B95DA002F075FA02E064A002F0BA
:104F300071FA6CA000F0D0F918B96CA002F06AFA0E
:104F400002E073A002F066FA78A002F063FA82A091
:104F500002F060FAFFF724FF83A002F05BFAFFF78C
:104F600037FF04461CB984A002F054FA08E0012C73
:104F700003D185A002F04EFA02E087A002F04AFABF
:104F800088A002F047FA91A002F044FA002038BD50
:104F90000008014000023000484330353A204A54AE
:104FA00041472064697361626C65642C2050413113
:104FB0003520667265656420666F72204C4544201A
:104FC000646574656374696F6E5C725C6E0000008A
:104FD00090012142484330353A205374617274691C
:104FE0006E67206D6F64756C6520636F6E666967B0
:104FF00075726174696F6E2E2E2E5C725C6E00008D
:10500000484330353A20415420636F6D6D756E69A9
:10501000636174696F6E2074657374202D204F4B2B
:105020005C725C6E00000000484330353A20415409
:1050300020636F6D6D756E69636174696F6E207446
:10504000657374202D204641494C45445C725C6E6A
:1050500000000000484330353A20526F6C652073E1
:10506000657420746F20536C617665206D6F646584
:105070005C725C6E00000000484330353A204661A7
:10508000696C656420746F2073657420726F6C6541
:105090005C725C6E000000005342480048433035AB
:1050A0003A20446576696365206E616D652073659D
:1050B0007420746F2027534248275C725C6E000096
:1050C000484330353A204661696C656420746F202E
:1050D00073657420646576696365206E616D655CD7
:1050E000725C6E00313233340000000048433035CA
:1050F0003A2050616972696E672050494E2073658D
:105100007420746F202731323334275C725C6E0058
:10511000484330353A204661696C656420746F20DD
:105120007365742050494E5C725C6E005C725C6EFC
:105130003D3D3D204843303520436F6E66696775BD
:10514000726174696F6E2053756D6D617279203D67
:105150003D3D5C725C6E0000446576696365204E7F
:10516000616D653A200000004465766963652052F0
:105170006F6C653A20000000536C617665204D6FBE
:1051800064655C725C6E00004D6173746572204DE5
:105190006F64655C725C6E00556E6B6E6F776E5CF3
:1051A000725C6E003D3D3D3D3D3D3D3D3D3D3D3DE7
:1051B0003D3D3D3D3D3D3D3D3D3D3D3D3D3D3D3D1F
:1051C0003D3D3D3D3D3D3D5C725C6E0048433035AC
:1051D0003A204D6F64756C6520636F6E6669677504
:1051E000726174696F6E20636F6D706C6574652198
:1051F0005C725C6E0000000010B502A000F008F8C0
:1052000010BD000041542B5245534554000000008E
:105210002DE9F0410446052734E001201D490860CE
:105220000A2002F08FFD21461BA003F04FF9002059
:105230001B49C1F8900100260AE00A2002F082FD15
:105240001848008800F4004000B103E0701CC6B2AA
:10525000142EF2DB00BF1348008800F4004070B148
:105260001048057800201049485510A10E48FAF75B
:10527000ABFF20B100200B490880BDE8F081002081
:10528000084908803800A7F10101CFB2C5D101203B
:10529000F3E700009001214225730D0A0000000091
:1052A00000002142AA000020270300204F4B0000ED
:1052B00010B588B00446224604A1684602F0BAF848
:1052C0006846FFF7A5FF08B010BD000041542B4E03
:1052D000414D453D2573000010B588B00446224677
:1052E00004A1684602F0A6F86846FFF791FF08B0EF
:1052F00010BD000041542B505357443D257300000E
:105300001FB50446224604A1684602F093F8684699
:10531000FFF77EFF04B010BD41542B524F4C453D6A
:105320002564000010B502A0FFF772FF10BD000059
:105330004154000000BFFEE708B50121442000F001
:105340005FFC0120ADF8000028208DF803006946BD
:105350000648FCF72DFF1C20ADF8000048208DF812
:10536000030069460248FCF723FF08BD000801401E
:105370000018014010B5044614B1012022490870FC
:105380002148007850B32148006801280AD02048FD
:10539000006838B11E48001D006818B11C4808306C
:1053A0000068D8B90A2002F0CDFC00201649087028
:1053B00016480068012800D110BD1548006808B9DA
:1053C0000220F9E71248001D006808B90320F3E73E
:1053D0000F4808300068A0B90420EDE70B480068CA
:1053E00078B90B48006801280BD10948001D0068F6
:1053F000012806D1064808300068012801D1024979
:1054000008700020D8E70000280000200001214299
:105410000801234270B506460F484088401E83B2FB
:105420000D480088401E82B20021084600F07CF83A
:1054300000240CE0002504E0304600F06FF9681C01
:1054400085B205484088A842F6DC601C84B2024858
:105450000088A042EEDC70BD4600002000B5024688
:105460000F4882716AB9362000F04CF94C2000F0E8
:105470004FF94FF4F0700A4948804FF4A07008804B
:105480000CE0362000F03EF92C2000F041F94FF4FA
:10549000A070034948804FF4F070088000BD000000
:1054A0004600002070B504460D4616462B4622469F
:1054B0002946204600F038F8304600F02FF970BD3C
:1054C0002DE9F04304460D4616461F46DDF81C80C4
:1054D000B44201DCBD4201DDBDE8F0833B4632460B
:1054E0002946204600F020F8301B401C84B2781B6F
:1054F000401C85B20BE0A94602E0404600F00EF9E0
:105500005FEA0900A9F101011FFA81F9F5D1200034
:10551000A4F101018CB2EED100BFDDE701480088A3
:10552000704700000008006C30B504460D462A2084
:1055300000F0E8F8201200F0EBF8E0B200F0E8F834
:10554000101200F0E5F8D0B200F0E2F82B2000F0E5
:10555000D9F8281200F0DCF8E8B200F0D9F81812F7
:1055600000F0D6F8D8B200F0D3F82C2000F0CAF83A
:1055700030BD00002DE9F84F80460E4617461C4608
:10558000B3462046E31704EB5373DB1021464FEA82
:10559000E47C04EB5C7C4FEAEC0CA4EBCC0CBCF19F
:1055A000000F02D04FF0010C01E04FF0000C6344FB
:1055B000224604EBD27C4FEA6C0C03FB0CF3DBB20B
:1055C0000093A7F12000C7B2002556E00C2C07D1AC
:1055D00007EB47002B4901EB800010F8059013E022
:1055E000102C05D1284800EB071010F805900BE0AF
:1055F000182C07D107EBC700244901EB800010F8F5
:10560000059001E0BDE8F88F4FF0000A2FE009F0A7
:10561000800030B11E48028831464046FFF742FF05
:1056200007E00A9828B91B48028831464046FFF730
:1056300039FF4FEA49604FEA1069701C86B216487C
:105640004088B04200DCDDE7A6EB0B00A0420AD1A7
:105650005E4608F101001FFA80F80F4800884045B7
:1056600000DCCFE706E00AF1010000F0FF0ABAF122
:10567000080FCCDB00BF681CC5B200988542A5DBD3
:1056800000BFBFE71C85000890890008808F0008D4
:105690004200002044000020460000202DE9F84789
:1056A00004460D4690469946DDE9096704F0FF0A75
:1056B00008EB04001FFA80F809EB05001FFA80F9D7
:1056C00016E0444502DB5446A81985B24D4500DB7F
:1056D00014E0002000903A78334629462046FFF730
:1056E00049FF304606EBD07104EB61018CB27F1CA0
:1056F00038787E2802DC38782028E2DA00BFBDE85E
:10570000F88700000149088070470000FE07006C20
:1057100001490880704700000008006C0112024A2D
:105720001180C1B2118070470008006C10B50446AA
:105730000448047024B94FF6FF710348FCF719FEC2
:1057400010BD0000190000200010014008B5012123
:10575000582000F055FA10208DF8030003208DF832
:1057600002002020ADF8000069460E48FCF720FD3D
:105770002020ADF8000069460B48FCF719FDFF201A
:10578000ADF8000069460948FCF712FD002000F062
:10579000F9F8002000F00CF84FF6FF710348FCF711
:1057A000E8FD08BD000C0140001801400010014058
:1057B00008B9012100E00021014A11607047000092
:1057C0009401234210B52B480078401C29490870E9
:1057D00008460078282800DA10BD00202549087006
:1057E00025480078E8B125490978481C00EBD071BC
:1057F0004910A0EB4101214A11701046007838B1E0
:1058000000211F48FCF7B5FD1EA001F003FE2FE0AC
:105810004FF6FF711A48FCF7ACFD20A001F0FAFD2D
:1058200026E024480078D8B1144801780120884047
:10583000C04384B221461248FCF79BFD22460F4824
:1058400001781DA001F0E6FD0C490978481CC1173C
:1058500000EB5171C910A0EBC101084A117007E0BB
:105860004FF6FF710648FCF784FD002003490870DD
:1058700000BFB1E71C000020190000201B00002021
:10588000001001404C45443A20416C61726D206625
:105890006C617368204F4E0D0A0000004C45443A7D
:1058A00020416C61726D20666C617368204F4646C2
:1058B0000D0A00001A0000204C45443A2050756D36
:1058C00070206D6172717565652073746570202537
:1058D000642C207061747465726E3D3078253034AC
:1058E000580D0A0010B50446214609A001F092FDAA
:1058F0001048047044B94FF6FF710F48FCF739FDAA
:105900000EA001F087FD02E017A001F083FD10BD9D
:105910004C45445F50756D705F5365742063616CD6
:105920006C656420776974682073746174653D25C3
:10593000640D0A001A000020001001404C45443A52
:105940002050756D70206D6172717565652073747E
:105950006F707065642C20616C6C204C4544732022
:105960004F46460D0A0000004C45443A2050756DE4
:1059700070206D61727175656520737461727465F4
:10598000640D0A0008B9012100E00021014A1160FC
:1059900070470000948121420448006808B9012042
:1059A00000E0002001490860704700009481214216
:1059B00010B50723012206210848FBF703F801214F
:1059C0000648FBF760F800BF02210448FAF7BEFF63
:1059D0000028F9D00148FAF7B5FF10BD003C01409E
:1059E00070B50024002505E0FFF7E2FF204484B2F3
:1059F000681CC5B20A2DF7DB0A2094FBF0F084B2D4
:105A00006420604340F6FF7190FBF1F0C0F1640048
:105A1000C0B270BD00B587B0012148F2800000F02F
:105A2000EFF84FF48070ADF8180000208DF81B00DF
:105A300006A91848FCF7BCFB1748FAF74BFF0020F3
:105A400001908DF808008DF809004FF46020039054
:105A50000020049001208DF8140001A90E48FAF7E7
:105A600089FF01210C48FAF72AFF0B48FBF706F8DB
:105A700000BF0948FAF773FF0028FAD10648FBF780
:105A80000DF800BF0448FAF753FF0028FAD107B019
:105A900000BD0000001C0140003C014000BFFEE7CB
:105AA0007047000070B5002100230F22C47804B3B2
:105AB000154C246804F4E064C4F5E064210AC1F1E3
:105AC0000403CA40447804FA03F184781440214363
:105AD00009010E4C0678A155047804F01F05012435
